:020000041000EA
:1000000000B5324B212058609868022188439860DF
:10001000D860186158612E4B002199600221596106
:100020000121F02299502B49196001219960352056
:1000300000F044F80222904214D00621196600F024
:1000400034F8196E01211966002018661A6600F04E
:100050002CF8196E196E196E052000F02FF8012189
:100060000842F9D1002199601B49196000215960AB
:100070001A491B48016001219960EB211966A021F2
:10008000196600F012F800219960164914480160C1
:100090000121996001BC002800D000471248134993
:1000A000086003C880F30888084703B5996A0420EC
:1000B0000142FBD001200142F8D103BD02B5186610
:1000C0001866FFF7F2FF186E186E02BD00000240BE
:1000D000000000180000070000035F00212200005C
:1000E000F4000018222000A00001001008ED00E03C
:1000F00000000000000000000000000074B24E7A12
:1001000000200420F7010010C3010010C5010010F9
:10011000C1010010C1010010C1010010C101001097
:10012000C1010010C1010010C1010010C701001081
:10013000C1010010C1010010C9010010CB01001065
:10014000CD010010CD010010CD010010CD01001037
:10015000CD010010CD010010CD010010CD01001027
:10016000CD010010CD010010CD010010CD01001017
:10017000CD010010CD010010CD010010CD01001007
:10018000CD010010CD010010CD010010CD010010F7
:10019000CD010010CD010010CD010010CD010010E7
:1001A000CD010010CD010010CD010010CD010010D7
:1001B000CD010010CD010010CD010010CD010010C7
:1001C00000BE00BE00BE00BE00BE00BEEFF3058054
:1001D000103800BEF2EB88715C25041080250410F5
:1001E0003402001090A31AE700201F49086006C8D7
:1001F00081F3088810471D48006800282FD10DA4FE
:100200000ECC002902D000F012F8F9E71849194A7B
:10021000002000E001C19142FCD1174988471749ED
:1002200088471749884700BEFDE701C901C29A42C5
:10023000FBD3704780250410C000002080060020FA
:10024000402B04100000042000000420402B041068
:10025000001004200010042000000000704709482E
:1002600003F098FD0047000008ED00E0000000D01A
:100270008006002014F40020992A0010B503001015
:10028000592A00105756000006005250ABB3605375
:10029000189D001006005250861C0302289D001075
:1002A000060052505422A29D349D00100500525069
:1002B000DE65F468402B0410F8B5C04606480749CF
:1002C000091A8B10C90FC91810B5491003D0044B77
:1002D000002B00D0984710BD80060020800600202B
:1002E00000000000054B10B5002B03D00449054861
:1002F00000E000BFFFF7E2FF10BDC04600000000B5
:10030000D8D800200089001010B5154800F05CFA1C
:10031000144B1B78002B01D0022B13D112490A7801
:100320000132012313400B7010D10D4B186B2E229C
:10033000995C4018013803F081FD0C4B1970094B92
:1003400001221A700A4B01221A7010BD01F06EFED4
:10035000084B18605960084B01221A70E5E7C04647
:100360002809002008F4002007F4002009F40020E8
:100370000DF40020D00700200FF4002070B5040019
:100380000D000B490E6896420DD28169890608D48A
:100390009819110003F052FD6B5C2360044B013689
:1003A0001E60012070BD024B00221A600020F9E798
:1003B0008C09002030B583B004F062FB4349444807
:1003C00002F0FAF80221002000F072FB0221012065
:1003D00000F06EFB3F4C0223A360013363600425F1
:1003E000E560023323610A3363613B4B23603B4B7F
:1003F000A3610023E361012007F096F92062384BE6
:10040000A3622C234822E25401331032E254013318
:10041000E55404F085FC002804D0FA20800001F0A7
:1004200074FDFAE72B4C200000F03CF92D4801F058
:100430006CFD2D4B01220821606900F021FC3BE09E
:100440002A4B1B78C6222649294C402001903E3871
:1004500000905201200000F009FA26495823482252
:10046000200000F077FA244B1870244B1B78002BE7
:1004700026D0C6221E49002352011548FFF77EFFF1
:100480001E4B187000281BD101F0D0FD1C4B1A68C0
:100490005B68801A99411B4B1860596010E01A4C38
:1004A0002178002004F008FC012123784B402370C0
:1004B000164A13784B4013700F4B1B78012BBFD09B
:1004C000124B1B78002BF7D0E9E7C04640420F00E3
:1004D0000040034028090020500600200000205062
:1004E000D4120020102700000903001009F4002096
:1004F00000D90020D807002008F400200FF40020C5
:10050000D0070020C80700200CF400200DF40020C4
:1005100010B504001022002104F010F980235B02C2
:100520002360F8235B0263608023DB02A360C023A7
:100530001B03A360200010BD70B504000D00FFF781
:10054000E7FFEA1C636804490B40ED012B431203EB
:1005500013436360200070BD7F00FEFFF0B587B0DD
:1005600004000D0017001E00002300930A33320020
:1005700007F026F8390002A8FFF7DEFF059B124AB4
:100580001340F60333430593049A104B1A4081231A
:100590001B041343049302AB3A002900200007F028
:1005A00061F823680122AA401343236069004919B6
:1005B000C900D031641880235B01234380221206D6
:1005C0001A601A6007B0F0BDFF7FF0FFFFFF0AFE60
:1005D00010B50C2906D80368054A1340C9020B431D
:1005E000036010BD034B044A0448C32102F038FAEB
:1005F000FF87FFFF00890010AC89001020890010E0
:1006000000B583B001000023019310330193134B15
:10061000019301A8FFF7DCFF019B0C221900914315
:100620000A0008210A4301920D4A1A400A43019226
:100630000C4A1A400A4301920B4A1A401143019195
:1006400009210A430192094A1A400A4301920848C3
:1006500018400843019003B000BDC04610801F0041
:1006600033F8FFFF33F8BFFF33F89FFF33F81FFF66
:1006700031F81FFF10B53F2906D80368054A13401B
:10068000C9030B43036010BD034B044A0448B52162
:1006900002F0E6F9FF7FE0FF8089001094890010E6
:1006A0002089001070B582B004004068032100F07A
:1006B000FFF9A068032100F0FBF920683D4907F02D
:1006C000ADFFE06800F038FBE36801252A009A409E
:1006D000D02636067262E3682A009A40B26164202E
:1006E00001F013FCE3689D407561642001F00DFC8E
:1006F000314A2068302100F0A8F8304A20683021C3
:1007000000F0A3F820680023FF22302100F077F8E2
:100710002568DA223021280000F07EF80423034007
:1007200008221343DBB2DA223021280000F067F8F8
:100730002349A06906F0AEFE02002369E169A069C1
:10074000FFF70CFF00232363206AFFF759FF019096
:10075000102398430190103318430190A269E16976
:100760000431184B9A4222D00823C91801A8FFF778
:1007700081FF019B0C2293430193236A20002830C0
:10078000A169E2690832920089182C22A55C013225
:10079000A25C6A4352009B01A024E405A446634482
:1007A000196058609A60019A1A6102B070BD002306
:1007B000DBE7C046A0860100EC890010C889001064
:1007C000C88B00100000205010B50400036A816A35
:1007D000026B2C20205C50432D22A25C424352002D
:1007E0008A189B01A021C9058C466344DA62206BFC
:1007F00001302E23E15C03F021FB216310BD10B515
:1008000084B06C462273637300230093023303AAFF
:1008100007F030FF04B010BDF0B587B004000D0044
:1008200013000F226A44137000270097012307F07A
:1008300021FF17266E440097012332002900200073
:1008400007F024FF307807B0F0BDF8B507000E00C0
:10085000140004E031003800FFF7D1FF02342278A1
:10086000637815001D43F5D1F8BD0000F0B5D646FC
:100870004F464646C0B582B001900C0011000AAA4E
:10088000002010560BAA1578A9464B431D002A4B91
:100890001E688E424CD2801903F0D0FA49194900E3
:1008A000635AD80AC0005A0991008846DB009A466C
:1008B000FF27384003F08EFD204A214B03F01DFD39
:1008C00004000D0043463B40180003F083FD1D4A21
:1008D0001D4B03F012FD02000B002000290003F065
:1008E000EDFC04000D0053463B40180003F072FD80
:1008F000164A174B03F001FD02000B0020002900EF
:1009000003F0DCFC03F0A2FDC0B248450BD2FF238C
:10091000019A9355084B01361E6002B0E0BCBA46FE
:10092000B146A846F0BD019B9B1900221A70F1E761
:10093000014B00221A60F0E7D0120020894160E5E7
:10094000D022D33F62105839B4C8E23FC976BE9F67
:100950001A2FBD3FF0B5D6464F464646C0B50D00EE
:1009600019004C4B00241C5794422FD24A4B0022B2
:100970009A560B0063439B18C35CFF2B0DD0501C91
:1009800003F05CFA49B2444B1970002900D07EE0B4
:10099000404B01341C70012063E040480368013380
:1009A00003603F4803681B1903603E4803689B18B7
:1009B00003603D4D2B68100060431B182B603B4DBE
:1009C0002B68200060431B182B60D8E7334B1F684F
:1009D000364B18687843324B1E6833007343C01A95
:1009E00003F032FE041C002103F026FE00283DD156
:1009F0002D4B9946186878432A4B98461B689A46AF
:100A00007343C01A03F020FE211C03F0D2FD041C26
:100A10002860300003F018FE211C03F0DEFD041CEA
:100A2000504603F011FE211C03F0BDFD041C3800EC
:100A300003F00AFE011C201C03F0BBFD03F026FEA0
:100A40002871164A002313604A461360144A136043
:100A500042461360154A13600E4A13700E4A137013
:100A60000020E0BCBA46B146A846F0BD0B4A0023C0
:100A700013600D4A13600A4A13600A4A13600B4A56
:100A80001360044A1370044A13700220E9E701203E
:100A9000E7E7C0460AF4002011F40020D4D8002073
:100AA000D8F30020E4F30020E0F30020DCF3002082
:100AB00010B58300084A944663441A684024624093
:100AC000803414408022520113431C60C000034B49
:100AD0009C466044416010BD04C00140004001409C
:100AE00080000B4B9C46604400290DD00823002A4F
:100AF0000CD004221343026853400C221A40802376
:100B00005B0103431A6070470023F0E70022F1E71E
:100B100004C00140002909D08000094B9C46604474
:100B200080239B01034302221A6070478000044B1C
:100B30009C466044C0239B01034302221A60F4E7F1
:100B400004C0014070B50400D0231B061D680D4B86
:100B5000AA00D358002B0AD0002803D0094BAD00BF
:100B6000EC5070BD08490D2000F06CFBF6E7002842
:100B7000F7D0044BAD00E850034900220D2000F0EF
:100B800059FAEEE720090020A10C001070B5D0231F
:100B90001B061B68094C9D002C59204207D1074DAC
:100BA0009B0004435C510D2000F044FA70BD044BDF
:100BB000044A0548CC2101F053FFC046C0F1002093
:100BC000D88B0010A48C0010048C001010B5040009
:100BD000D0231B061A680B4B9200D35818420BD037
:100BE0000D2000F02FFBD0231B061B6805499B003E
:100BF0005A58A2435A5010BD034B044A0448D62108
:100C000001F02EFFC0F10020548C0010808C0010E9
:100C1000048C0010072303409B00C00899403C301F
:100C20008000014BC150704700400140F8B50700FB
:100C30000C0016001D00FFF7EDFFFB089B00ED18F0
:100C40000720384080008440002E04D080239B0180
:100C50002B431C60F8BDC0239B012B431C60F9E7AC
:100C600010B5D0231B061B68002B03D0024BFFF7E7
:100C7000DDFF10BD014BFAE730410140004101406A
:100C800070B514001D00FFF7EBFF2800FFF75AFFB7
:100C9000002C00D170BD01210D2000F089F9F9E789
:100CA000F0B5D6464F464646C0B5D0231B061F6852
:100CB0001D4BBA00D3589846002F03D01B4B9946C2
:100CC000002623E01A4B9946FAE724090135002C47
:100CD0001BD033000833AB4217D90F231A00224030
:100CE00092462342F1D0134BBA00D2580123AB40B5
:100CF0001342EAD151462800FFF78CFF4346002BF0
:100D0000E3D051462800C047DFE708361D2E06D83D
:100D1000F30808339B004A469C583500D7E7E0BCEF
:100D2000BA46B146A846F0BD200900203041014036
:100D300000410140C0F1002010B501238340D022C2
:100D40001206936293610521FFF7B2FE10BD000009
:100D5000034B1B6802201840431E9841C0B27047E5
:100D600000C00640EFF3108072B6034B1B68002BE7
:100D7000FBD0BFF35F8F70472C0100D0BFF35F8FB4
:100D8000024B00221A6080F3108870472C0100D0BB
:100D9000F8B506000C001500FFF7E4FFE308F718AC
:100DA000F15C07222240012393400B4205D1DBB2C4
:100DB0000B433B70FFF7E2FFF8BD2100280001F074
:100DC000E7FEF0B583B00600019114001F00FFF7A5
:100DD000C9FF00E00134BC420CD8E308F518F35C0D
:100DE0000721214001228A401A42F3D1D2B21A438C
:100DF0002A7001E001246442FFF7C0FF002C02DBEF
:100E0000200003B0F0BD019B002BF9D0089801F041
:100E1000BFFE000070B505000C00FFF7A3FFE3085C
:100E2000EE18EA5C0721214001238B40134204D0D5
:100E30009A433270FFF7A2FF70BD034B034A044888
:100E4000332101F00DFEC046D88C00104C8D0010EF
:100E5000F88C0010002307E0054A9A189200BFF3AF
:100E60005F8F0021116001331F2BF5D97047C046F9
:100E700040000034054A1078431CDBB21370172B76
:100E800002D9130010221A707047C046780500205E
:100E9000074B9B68103080001950BFF35F8FBFF382
:100EA0005F8F044B0021196082F310887047C046A1
:100EB00000ED00E0240100D01F23181A7047000045
:100EC00010B50388DA0A1C2A05D15B055B150233CD
:100ED0005B00C01810BD034B034A0448B12101F068
:100EE000BFFDC0465C8D0010E88F0010748D0010AF
:100EF00010B5091A0B1F0A4A88180A4A904208D8E6
:100F0000C90706D45B105B055B0D0748184380B228
:100F100010BD064B064A0748A32101F0A1FDC046BB
:100F2000FC070000FE0F000000E0FFFFC48D001072
:100F3000DC8F0010748D001010B5091A04394A08AE
:100F4000090B08D14905490D064B0B430380064B9D
:100F50001343438010BD054B054A0648AB2101F001
:100F60007FFDC04600F0FFFF00F8FFFFF48D00108A
:100F7000B08F0010748D001001238340034A106865
:100F80001840431E9841C0B27047C04600E100E0DF
:100F9000002904D0034B1860034B18607047034BC3
:100FA0001860FBE780E200E000E100E080E100E0A3
:100FB00010B5012383401800FFF7EAFF10BD0000C1
:100FC00001238340014A13607047C04600E200E0FD
:100FD000024B9B6810308000C058704700ED00E065
:100FE00070B504000D00EFF3108672B60C4B1B6851
:100FF000002BFBD0BFF35F8F2000FFF7E9FF094B09
:10100000984201D0A84205D1320029002000FFF704
:101010003FFF70BD044B054A0548862101F020FDC5
:10102000240100D0CD010010048E0010109000109B
:10103000748D0010F0B5DE4657464E464546E0B585
:1010400089B0814601911500EFF3108A72B66D4B9D
:101050001B68002BFBD0BFF35F8F6B4B00269E57A6
:10106000002E41DB7400A419A4006848241806224D
:10107000A256654B1A70664B9A684B4610339B001C
:10108000D35898461F00181A2F2839D9614B984514
:1010900030D105AF604B3B80604973009B46981987
:1010A00080005A4B984640440230FFF721FF788079
:1010B0005B4BBB80FF23BB71FD71019B079333002A
:1010C0005B449B00434407CF07C301231C43A04656
:1010D000524641464846FFF7DBFE09B0F0BCBB462E
:1010E000B246A946A046F0BD4E4B4F4A4F48D721C5
:1010F00001F0B6FC4E4B4C4A4C48DE2101F0B0FCEE
:1011000001380C2102F09AFE002912D101239F43DD
:10111000BB463B000027DA79AA4211D9062159566D
:1011200000290CDB4A005218920038491F008B1826
:10113000F1E7404B3C4A3D48EA2101F091FC1F0099
:10114000002F2ED005AB3C4A1A80813A5A800623E4
:10115000FB560293002B17DA384805AB9B46988064
:10116000029A9A71DD71019A0792381D2100FFF7EA
:10117000BFFEB880BE71254B7200921992009B1879
:101180005A4613CA13C3A3E7381DFFF799FE01009F
:101190007000801980001D4BC0180430FFF7A8FEB6
:1011A000DBE705AF1C4B3B801C49730002939B1986
:1011B0009B00164A90461A0042440392901CFFF787
:1011C00097FE7880039A101D5946FFF791FEB8806C
:1011D0001B4B5A464146521A524153431B0DBB7199
:1011E000FD71019A0792029B9B199B00434407CF14
:1011F00007C3114B5A461380813B538001231C4384
:10120000A04665E7240100D00BF400207C050020F7
:1012100000ED00E0CD01001000A1FFFFAC050020B3
:1012200001BDFFFF3C8E0010F88F0010748D001080
:10123000648E00108C8E00100148000001BD00007B
:10124000AAAA0000F0B5CE46474680B583B0060096
:101250000D00EFF3108872B64F4B1B68002BFBD0CC
:10126000BFF35F8F4D4B9A6834001034A300D758FA
:101270004B4B9F4207D0AF4200D18BE00197494BC7
:10128000FB1A2F2B09D9424639003000FFF700FE28
:1012900003B0C0BCB946B046F0BD3000FFF76CFEED
:1012A000814600213000FFF783FEBFF35F8FEFF32D
:1012B0000581002901D08C4211D10123019C9C435E
:1012C0000020A368AB4212D00622A256002A0DDBF2
:1012D00053009B189B00334A2000D418F1E7324B8F
:1012E000324A36213248FF3101F0BAFB2000AB42CE
:1012F00049D106256557002D2BDB2A4B6A00521970
:1013000092009B189A68A260DA79E2719B795BB2CD
:10131000A371002B0FDA2748A080224B6A005219D4
:1013200092009B18244A1178997115704946300033
:10133000FFF73EFEA7E7680040198000194BC01870
:101340000430FFF7BDFD0100231D1800FFF7D0FD9D
:10135000E2E7002912D100280ED0FF238371174B3A
:10136000838015490B78A3710E4A154BA41A64416A
:1013700063431B0D0B70D9E7094FF2E71149201D9C
:10138000FFF7DAFDD2E7104B084A6A210848FF311F
:1013900001F066FB024F76E7240100D000ED00E08B
:1013A000CD0100107C050020008F0010C88F0010B8
:1013B000748D001001BD00000BF4002001BDFFFF83
:1013C000AAAA0000B6050020348F001010B5032330
:1013D00004009C43064A9446644422681840C000B6
:1013E000FC3383409A43130081400B43236010BDBC
:1013F00000E400E070B5012202432E4BD31A2F2BDC
:1014000028D8EFF30583002B2BD0EFF3108C72B6A6
:10141000294909680029FBD0BFF35F8F254C274974
:1014200005002D1B6D416943090D4CB224498968A3
:101430009B00C95891421BD00021032932D81D4B73
:101440004A00521892009B189B795BB2A3421FD0AE
:101450000131F2E71B4B1C4AC7211C48490001F02F
:10146000FFFA1B4B184A92211848FF3101F0F8FA95
:10147000134A92681749D150174B1A7882711C7021
:10148000BFF35F8F0C4B00221A608CF3108870BD85
:10149000084B4A005518AD005D19FF26AE710F4A82
:1014A000AA80E9E70E4B084AD1210848490001F01B
:1014B000D7FAC0467C050020240100D0AAAA00006B
:1014C00000ED00E03C8F0010948F0010748D001030
:1014D000648F0010CD0100100BF4002001BDFFFF50
:1014E000708F00100022044B02E0044902C3013255
:1014F000072AFAD97047C04600E400E08080808067
:1015000010B5FFF7D9FC0100024B1800FFF782FC71
:1015100010BDC04610F4002010B582B00100074C89
:10152000074B0093052300222000FFF74AFC002808
:1015300001DB1F23181A02B010BDC04610F40020B2
:10154000788F001070B504000E001500FFF792FCB4
:101550000100200000F006F8A680E580BFF35F8F51
:1015600070BD0000024B9C466144890001607047D9
:101570004000003410B50400FFF77CFC010020009F
:10158000FFF7F0FFFF232371BFF35F8F10BD10B58E
:101590000400FFF76FFC01002000FFF7E3FFFF23CB
:1015A000237100236371BFF35F8F10BD084B5B6A2B
:1015B000994209D8064A926A824207D2994201D0DA
:1015C000012002E0002000E0002070470120FCE73D
:1015D0000040054010B500290AD003681B7B8B42F0
:1015E00006D38068054B9C4661440901401810BD34
:1015F000034B044A04483C2101F032FAFFFFFF0F7D
:1016000040910010F894001064910010F8B50400A7
:101610001700FFF7DFFF0668456839002000FFF775
:10162000D9FF026843680120AB4201D802D00020F4
:10163000C0B2F8BDB242FBD8F9E7000010B5002BEC
:1016400002DB0260436010BD024B034A03483F21A6
:1016500001F006FAAC910010C4940010C89100107B
:1016600010B582B004000498059912184B41002B64
:1016700009DB6846FFF7E2FF009A019B2260636086
:10168000200002B010BD01225242014BF1E7C046DA
:10169000FFFFFF7F10B5002908D0037B8B4205D3E5
:1016A00000684B005B18033BC01810BD024B034A97
:1016B0000348682101F0D4F920920010A094001092
:1016C0003C92001010B5437B8B4201D1012010BD2C
:1016D000FFF7E0FF8378002B01D10020F7E701201E
:1016E000F5E770B50400857B002D01D1280070BDA1
:1016F0002900FFF7CFFF4378A373002B00D1E373DA
:101700000023837043700370F0E70000F8B5060013
:101710000C001500FFF7BEFF0700002C0DD0002DB8
:1017200011D0AC4215D029003000FFF7B3FF847010
:101730003B78002B13D13D70F8BD0A4B0A4A0B4889
:101740006F2101F08DF90A4B074A0848702101F01A
:1017500087F9084B044A0548712101F081F943706B
:101760003D70E9E7989200107C9400103C920010C4
:10177000A4920010B092001070B506000D00140085
:10178000002914D0002A14D04368806898470028A4
:1017900006D0220029003000FFF7B8FF280007E03C
:1017A0002A0021003000FFF7B1FF200000E0100008
:1017B00070BD0800FCE7000070B504000D1E0CD0E1
:1017C000FFF768FF0023837043700370617B2A007A
:1017D0002000FFF7D1FF607370BD034B034A04483C
:1017E000A52101F03DF9C046C89200109094001068
:1017F0003C92001070B504000D1E0FD0FFF762FF81
:1018000000280BD1E17B00290ED1A37B002B03D153
:10181000E37B002B0DD1A573E57370BD084B094A1E
:101820000948F62101F01CF92000FFF733FF45704D
:10183000EBE7064B034A0448FB2101F011F9C046CF
:10184000CC9200106C9400103C920010F0920010AA
:1018500010B5002907D003681B7B8B4203D3C068F7
:101860000139401810BD034B034A0448412101F0DF
:10187000F7F8C04640910010589400106491001091
:1018800070B505000C00080000F0CAFC09492000F2
:1018900000F00AFCFFF7EEFA074B9C46604480001C
:1018A00068602C75D0231B061B786B75034BA40056
:1018B000E55070BDCD19001040000034F0D8002074
:1018C0000A4B1A68EFF3108172B61368002BFCD034
:1018D000BFF35F8F054B1B68BFF35F8F00221A6059
:1018E00081F3108840BF002000217047D4F300200E
:1018F00010B582B0040000F099FB02000B006846AE
:10190000FFF79CFE009A019B22606360200002B0FA
:1019100010BD70B584B0040016001D0002A8FFF7CA
:10192000E7FF029A039B009601952000FFF798FEBF
:10193000200004B070BD0000F0B583B00700019234
:101940001D000AAB1C780BAB1E78002C0BD0006876
:101950002100FFF7B7FE002809D0194B194A1A4891
:10196000672101F07DF80068FFF7BBFE0400002C42
:1019700002D1200003B0F0BD21003800FFF72AFE9D
:10198000019B03604560089B8360099BC3603868C6
:101990002100FFF711FFA042EBD1387D019A2B0007
:1019A00000F0CAFB051E01D0002E04D00C9B002BBA
:1019B000DFD01D70DDE73868210000F077FDF5E726
:1019C00004930010AC94001064910010F0B5DE4652
:1019D00057464E464546E0B58FB00B900021794BF7
:1019E0008200D458894683E029002000FFF7F2FDE9
:1019F000804602684368921BBB41002B09DD4346C9
:101A00001A685B680B9800F097FB00239846002645
:101A10008AE0002B01D1002AF1D10021584600F0C4
:101A20003BFD0700A84215D143461A685B6808923F
:101A3000099343469E68DB689846002E10D0290023
:101A40002000FFF705FF037899461B021F4327611B
:101A5000002069E05C4B5D4A5D488E2101F000F892
:101A60005C4B5A4A5A48922100F0FAFF2369002B36
:101A700000D177E0BB4219D1069807990023424272
:101A80008B4100920193089A099B0CA8FFF7E8FD8F
:101A90000C9A0D9B0021049101310391029541465E
:101AA000019100962000FFF747FF16E04A4B474A96
:101AB0004748A12100F0D4FF069A079B002B01D1D3
:101AC000002A52D120682900FFF794FE2900200047
:101AD000FFF7BEFE037801330370002323616268C1
:101AE000BFF35F8F13608AF310880120002861D054
:101AF0000CA8FFF7FDFE0C9E0D9F0022002308920C
:101B000009936268EFF3108A72B61368002BFCD059
:101B1000BFF35F8F23689B465D7B002D00D063E79A
:101B200000239846002600206368BFF35F8F0022E1
:101B30001A608AF31088002ED8D04B461F022F431C
:101B400041463800B047069007916268EFF3108A6B
:101B500072B61368002BFCD0BFF35F8F079B002B7E
:101B600000DA83E7079B002BA6DD2369002BA9D0B1
:101B7000BB4219D10CA8FFF7BBFE0C9A0D9B06982F
:101B80000799009001910CA8FFF76AFD0C9A0D9B34
:101B90000021049101310391029541460191009683
:101BA0002000FFF7C9FE98E70B4B084A0848A4211C
:101BB00000F056FF0FB0F0BCBB46B246A946A046A7
:101BC000F0BDC046F0D800202C930010DC9400102B
:101BD00064910010449300105093001010B50C4B0A
:101BE0005B68002B04D00B480A21FFF7BBFC10BD3B
:101BF000074C094A20682300102100F0B8FB03209D
:101C000000F008FA03212000FFF73AFEEBE7C04698
:101C1000C4050020D4F300200D16001010B5064BAB
:101C20005B68002B01D0044810BD044B044A0548F2
:101C30005E2100F015FFC046C40500208C93001003
:101C40004094001064910010F0B5DE4657464E46B1
:101C50004546E0B58DB0060090461F00169B9A469B
:101C6000179B994618AB1B780793272302AA944623
:101C7000634400221A7021E001003000FFF7E8FD04
:101C800000783CE00698002B5CD0079B002B59D0D5
:101C90004946D04704000D0003000B4359D00029EA
:101CA00040DB08A8FFF724FE089A099B00940195E1
:101CB00008A8FFF7D5FC089B9846099F7268EFF3C8
:101CC000108B72B6136859424B41D9B20691002B62
:101CD000F8D1BFF35F8F273302AA9446634404937D
:101CE0000023039302934B460193534600934246CD
:101CF0003B003000FFF720FE0400051EBCD17368D6
:101D0000BFF35F8F002119608BF31088002D17D06F
:101D1000272302AA944663441B78002BB2D1000209
:101D20002043B0E700236242AB4100920193424658
:101D30003B0008A8FFF794FC089B9846099FBDE765
:101D4000012040420DB0F0BCBB46B246A946A046B9
:101D5000F0BD0698F6E7F0B5C64600B584B00500BC
:101D6000884616001F000AAB1C78FFF757FF029445
:101D7000019700962A004346FFF766FF04B080BC37
:101D8000B846F0BDF0B5C64600B505000C1E42D001
:101D90004268EFF3108772B61368002BFCD0BFF3D4
:101DA0005F8FE6B22B68984631001800FFF78AFC77
:101DB00000282AD02B69A34213D0240AE4B23100B0
:101DC0002800FFF745FD0378A34211D000206B687F
:101DD000BFF35F8F00221A6087F3108880BCB8467B
:101DE000F0BD0E4B0E4A2C210E48FF3100F038FE9C
:101DF0003100404600F05AFB0028E8D10A4B084A5F
:101E000099210848490000F02BFE2B69A342DED13E
:101E100000232B61DBE70020E0E7C046B093001011
:101E20002894001064910010D493001010B50400A1
:101E3000FFF7F4FE2100FFF7A5FF10BD407D7047BE
:101E400030B587B004000D00EFF30583002B20D1DF
:101E500006225242D31712196B418B4202D803D18A
:101E6000824201D90022002304A8FFF7E7FB02A861
:101E7000FFF73EFD02980399049A059B121A8B41C5
:101E8000002B0BDC08D02000290000F0DBF807B0A5
:101E900030BD144800F07CFE002AF4D0124A0498A9
:101EA000059900230093FFF756FF002813DAEAE7AD
:101EB0000E4B1A68EFF3108172B61368002BFCD03A
:101EC000BFF35F8F094B1B68BFF35F8F00221A605F
:101ED00081F3108820BF04980599FFF767FB00285D
:101EE000E6D0D0E7D8930010C1180010D4F300203A
:101EF00000B583B002000B006846FFF70AFD0098AA
:101F00000199FFF79DFF03B000BD10B5FA229200C2
:101F10000023002102F02AFBFFF7EAFF10BD0000BA
:101F200030B583B005000C00EFF30583002B0FD113
:101F30000B4A00230093FFF70EFF00280BDD20BFA4
:101F4000FFF774FF28002100FFF730FB03B030BD1E
:101F5000FFF72CFBFAE728002100FFF727FBF5E746
:101F6000C118001010B5002B02DB0260436010BDE9
:101F7000024B034A03483F2100F072FDAC91001070
:101F8000C8950010C891001070B5EFF305801038A7
:101F9000EFF3108C72B6194B1B68002BFBD0BFF30C
:101FA0005F8F01221300834015494B6315490B6075
:101FB000154909780C00C440224213D0104A546AD3
:101FC000124A8500AA58944205D3114AAA580E4CC9
:101FD0009943217007E00A4A031D9B0099589950C4
:101FE000002200E00022BFF35F8F044B0021196044
:101FF0008CF31088002A00D0904770BD280100D0D3
:10200000004005403C7005400EF40020E8F300203D
:10201000E807002010B50100024A034B1800FEF744
:10202000B7FE10BD1095001005F40020044B5B6A4C
:10203000034A906A1900536A9942F9D17047C04621
:1020400000400540084B5B6A01E0074B5B6A8B422E
:10205000FBD301E0044B5B6A8B4203D1024B9B6ACA
:102060008342F7D37047C04600400540F0B583B0C7
:1020700004000D00FFF7DAFF06000F0022002B001E
:1020800092197B41994202D804D1904202D901228F
:102090005242D3176846FFF765FF00980199FFF792
:1020A000D1FF03B0F0BD000070B504000E00EFF3E7
:1020B000108572B61B4B1B68002BFBD0BFF35F8FE4
:1020C000002E1CD02000FEF783FF174B83420BD05D
:1020D00019002000FEF784FF01212000FEF768FFB1
:1020E0000123A340114A1360114BA400E650BFF333
:1020F0005F8F0C4B00221A6085F3108870BD0C4B6B
:10210000A2000021D1500122A2400A490B7893433A
:102110000B7005492000FFF795F800212000FEF71D
:1021200047FFE4E7280100D0891F00103860054010
:10213000E80700200EF40020F0B5DE4600B584B0BC
:102140000400150001921E000293FFF76FFF039534
:102150008E4202D84ED185424CD9EFF3108B72B625
:10216000274B1B68002BFBD0BFF35F8F254A1778E6
:102170000125A540EBB23B431370234B5D63221D49
:1021800092000199D150214AA100029888501B6AFF
:102190002B4212D11C4B1B6C2B4208D00020BFF3EA
:1021A0005F8F174B00221A608BF3108823E0184BC7
:1021B000184A1948C52100F053FCFFF737FF8E423B
:1021C00014D802D1039B834210D80E4B1B78BB421C
:1021D0000ED00D4B1D625D631F22224001239340F0
:1021E0000E4A1360074B1F700120D8E70020D6E786
:1021F0000120D4E7012004B080BCBB46F0BDC0463E
:10220000280100D00EF4002000400540E8F3002033
:1022100034950010AC9500105895001080E200E055
:10222000EFF3108C72B60B4B1B68002BFBD0BFF387
:102230005F8F01238340084A136208490A789A4352
:102240000A70BFF35F8F034B00221A608CF3108873
:102250007047C046280100D0004005400EF4002021
:1022600010B5002908D0037B8B4205D300684B00D2
:102270005B18033BC01810BD024B034A034868219A
:1022800000F0EEFB20920010DC9600103C92001053
:10229000F8B506000C001500FFF7E2FF0700002C60
:1022A0000DD0002D11D0AC4215D029003000FFF721
:1022B000D7FF84703B78002B13D13D70F8BD0A4BDB
:1022C0000A4A0B486F2100F0CBFB0A4B074A08482B
:1022D000702100F0C5FB084B044A0548712100F04D
:1022E000BFFB43703D70E9E798920010C89600105C
:1022F0003C920010A4920010B092001070B506003D
:102300000D001400002914D0002A14D043688068FE
:102310009847002806D0220029003000FFF7B8FFB8
:10232000280007E02A0021003000FFF7B1FF20005D
:1023300000E0100070BD0800FCE770B50500002348
:10234000437301338373037BC373012406E02100CD
:102350002800FFF785FF0134E4B24470297BA142D5
:10236000F5D82800FFF77CFF0023437070BD10B53F
:10237000017342608360FFF7E0FF10BDF0B5C64611
:1023800000B505000C1E03D1200080BCB846F0BD8E
:10239000FFF766FF4678002EF6D031002800FFF7E1
:1023A0005FFF477800239846437021002800FFF71D
:1023B00057FF43464370320021002800FFF79EFF7D
:1023C000040039002800FFF7D9FF0200210028008F
:1023D000FFF794FF0400D7E7F0B5C64600B5040048
:1023E0000D001700002927D0FFF73AFF4378002B94
:1023F00028D18378002B2BD101782000FFF7BEFF76
:1024000006008046002F0AD0E17B002926D1A37B5D
:10241000002B03D1E37B002B25D1A573E573434645
:10242000002B26D129002000FFF71AFF002343705C
:10243000300080BCB846F0BD114B124A124838211A
:1024400000F00EFB114B0F4A0F483A2100F008FB39
:102450000F4B0C4A0C483B2100F002FB2000FFF719
:10246000FFFE4570D3E70B4B064A0748422100F0B8
:10247000F7FA31002000FFF7F3FE00238370D1E765
:10248000E0950010B4960010E8950010309600100A
:1024900058960010F092001070B504000A00457BB9
:1024A0002900FFF799FF6073280070BD70B5060022
:1024B0000C1E40D0437B8B4207D0FFF7D1FE0500B6
:1024C0008178002906D1002036E00121FFF7E4FFE2
:1024D000012031E03000FFF7C3FE0178A1420DD0AA
:1024E0003000FFF7BDFE4178A1420AD00029F7D1A4
:1024F000124B134A13486B3100F0B2FA6B78037039
:1025000001E06B7843700023AB706B7001222100F7
:102510003000FFF761FF0200717B814205D030007F
:10252000FFF7ECFE7073012006E0074B044A0548F4
:10253000712100F095FA002070BDC046708F001028
:102540009C960010E89500107C96001070B5046B06
:10255000E30701D4200070BD02003032C0239B018C
:1025600013430A4A1A60456A836AAD01ED18AD0249
:10257000062000F0BDF9064901F060FC01002800CA
:1025800001F05CFC0021FFF771FDE3E701030000AF
:102590004E0E000070B504000E001500FFF7D6FFC8
:1025A00022002C32E36A5E40354080235B011343F6
:1025B0001D60206370BD000070B505000C00062092
:1025C00000F096F9C000210001F038FCC60908D0DF
:1025D0000E4B9E4216D87F230340013334005E0821
:1025E00000E001246C62AE62002200212800FFF7A7
:1025F000D1FF062000F07CF98000A101891901F0CB
:102600001DFC70BD0026024CECE7C046FEFF00003A
:10261000FFFF000010B505394901013AD20011430E
:10262000002B09D002220A43012B07D000211143BD
:102630006E22FFF7AFFF10BD0022F4E70421F6E79A
:10264000002909D00A22064B9C4660444342584167
:10265000044B4000C252704780225200F3E7C0464C
:102660000080FCBFF8F3002070B505000C000620C8
:1026700000F03EF9061E27D0164B9D4226D0802240
:10268000D203154B1A60154B1A60154B9B6811004D
:102690009943FAD100212800FFF7D2FF210028003A
:1026A000FFF78AFF06000023012208212800FFF718
:1026B000B1FF2A002C3280239B01134310221A60A1
:1026C000084B2B630323AB64300070BD80221204DF
:1026D000D7E7C0460080034000E0004000F0004023
:1026E00000C0004001030000F8B5DE4657464E46E4
:1026F0004546E0B506000F0015000A9A934250D3F4
:102700001A0E92461B0298460A9A002340465146EA
:1027100001F0D2FB81467400A419A4002F4B9C4603
:1027200064446368834200D26060331FDBB29B461F
:10273000012B3CD9C0239B012343802212011A6044
:10274000274BB200D158002907D0586901F076FB19
:10275000013043001B18033BFDD26D0123685D402F
:10276000E0222A4080235B0123431A605A46012A53
:1027700028D980239B012343802212011A604B46F3
:1027800063604A4600234046514601F095FB144BD6
:10279000B60098510120F0BCBB46B246A946A046FF
:1027A000F8BD104B104A1148332100F059F9012FA0
:1027B000C0D1C0239B01234303221A60A368DB0717
:1027C000FCD5CAE72168794003220A401A60A36851
:1027D0000125BD401D42FAD0CBE7C0460080004035
:1027E00064090020E896001050970010FC96001035
:1027F00030B583B00C2000F011F9FEF7A9FA0028DB
:102800000DD0002304E02E4A99002E488850013351
:10281000092BF8D92A4B2C4A5A6203B030BD2B4BF6
:1028200000229A6700F002F9294B01221A60274B17
:102830005B6C012BFBD1274B03221A60234B9B6B54
:10284000012BFBD1013300930433234A0121234898
:1028500000F054F805230093214A0121214800F09B
:102860004DF8214B0093002202210420FFF73CFF8A
:102870001E4D00952B00002201210520FFF734FF9B
:10288000104C00942300002200210720FFF72CFFAA
:1028900000942300002200210820FFF725FF0A4BA7
:1028A00000932300002200210920FFF71DFF00955F
:1028B0002B00002200210620FFF716FFADE7C046DF
:1028C00064090020006CDC021BB70000008000409F
:1028D0003CB0004030B00040002F685900800240FA
:1028E000008C864700C00240001BB70040597307A8
:1028F000014B8000C058704764090020F0B5C646FF
:1029000000B504000E0017001D00374801F096FACC
:102910008046364BFA18364B9A4239D801003800B7
:1029200001F08CFA0200103A98235B009A4235D8E5
:102930006B1E062B38D8069B013B062B34D83F096B
:10294000474537D32D04069B1B031D432368002BEB
:1029500036DB284B9C4244D080235B01264A13601F
:10296000264A1360264A926819009143FAD12660DC
:10297000A060221DC0239B01134321221A602268FC
:10298000002AFCDAE56008221A6080BCB846F0BD77
:102990001C4B1D4A1D48112100F062F81C4B1A4ABD
:1029A0001A48192100F05CF81A4B174A17481C21E5
:1029B00000F056F8184B144A1448232100F050F840
:1029C00022683F231340B342C3D1A3681B051B0DEC
:1029D0008342BED1E368EE22D2021340AB42B8D1AB
:1029E000D3E780239B01B9E7001BB70080E84BD3F6
:1029F00080F8A93200C0024000E0004000F0004032
:102A000000C000406097001094980010C09700101C
:102A1000109800102C9800107898001080239B00CC
:102A20000343014AD362704700800540064BAA2247
:102A300012011A602F22DA60044B054A1A60024B19
:102A40005B68002BFBDA70470040024000600240E8
:102A500000B0FA0000BEFDE710B5FFF7FBFF000075
:102A600030B583B00D001900002A0BD0074B084C7D
:102A7000019200932B000200200001F0F5FF0120DD
:102A8000FFF7E8FF034B1A00F1E7C046A0980010DB
:102A9000B09800105CA5001070B52B4B2B4A1A6043
:102AA0002B4B2C4A1A602C4B9A682A4B9343FAD131
:102AB0002A4C01E008CC9847294B9C42FAD3FFF7F7
:102AC00097FE234B274A1A60234B9B68DB43DB01AD
:102AD000FAD1254B40229A675A671A67DA66234C67
:102AE00009E0234B234A24488721FFF7B9FF200040
:102AF000FEF740FD0834214B9C4209D22368002B8D
:102B0000F5D0012BEDD12000FEF741FD0834F2E7AE
:102B10001B4DA9681B4CC022200001F015FEAC60C3
:102B2000EFF30583002B00D000BEFEF793F9FEF70C
:102B3000D9FCFFF753F8144C01E008CC9847134B2D
:102B40009C42FAD370BDC04600E00040BFCDFBFE02
:102B500000F00040FE7F3C0000C0004068060020FE
:102B600078060020FFFFFF0100F001406006002012
:102B7000E098001074990010009900106806002079
:102B800000ED00E000000020780600208006002014
:102B90000FB400B583B0084801F036FF049B002B4A
:102BA00007D005A90191180001F03EFF034801F08C
:102BB0002BFF0120FFF74EFF5499001080A2001058
:102BC00010B50148FFF7E4FF64990010704710B595
:102BD000002802D00B684968984710BD010000200A
:102BE00007E083001B185B00501C08601078C018B9
:102BF00030380A681378303BDBB2092BF1D97047C3
:102C0000F0B5DE4657464E464546E0B583B093469E
:102C10001F000C9B9A460D9C0E9B99460F9B9B0791
:102C200003D0B8460F00060022E00192A346884672
:102C30004E46B9460700B44207D2551C4B464146A2
:102C40002020B84701342A00F5E73D004F465C4696
:102C5000019B9B46B1464646B84637002E0007E02A
:102C6000013C551C5346185D43463900B0472A00C5
:102C7000002CF5D135003E0047460F9B9B0707D43B
:102C8000100003B0F0BCBB46B246A946A046F0BD5A
:102C9000B0464E46B9462F005D46531BB342EFD2B5
:102CA000541C4B4641462020B8472200F5E7F0B5BA
:102CB000CE46474680B585B0944698460C9D0D9CFF
:102CC0000EAB1B789946109A119B129EB7071CD425
:102CD000002B0CD0F7070AD54F46002F02D10C3736
:102CE000374204D0013B02E030272F550134944293
:102CF00001D21F2CF8D9F70707D59C4205D21F2C0B
:102D000003D830272F550134F5E7F70612D577059C
:102D100005D4002C03D0944221D09C421FD00F9A9E
:102D2000102A32D00F9A022A37D01F2C0AD830220C
:102D30002A5501341F2C05D84A46002A33D02D22AB
:102D40002A55013403960293019400954346624646
:102D5000FFF756FF05B0C0BCB946B046F0BD621ED5
:102D6000012C10D00F9F102F0BD014000F9A102A97
:102D7000D8D1B206D6D51F2CD4D858222A55013422
:102D8000D3E7023CCBE71400C9E7B206EED41F2C10
:102D9000ECD878222A550134C7E71F2CD2D86032EC
:102DA0002A550134C1E7720703D52B222A55013475
:102DB000C8E73207C6D520222A550134C2E7F0B54C
:102DC000DE4657464E464546E0B593B081468A46B4
:102DD000089209931CAB10CB1B789B461E9D219B30
:102DE0009846002C03D1102342469A4390468023F4
:102DF000DB0046461E4042461A4212D0002C22D02A
:102E000000260EE03033D9B2771C0AAB9955290061
:102E1000200001F013F8AC4216D31F2F14D83E0047
:102E200004002900200001F009F8CBB2092BE9D9F0
:102E30004246920605D54121C918C9B20A39C9B21C
:102E4000E2E76121F8E7270043460693209B0593BC
:102E50001F9B049303955B46029301970AAB009373
:102E6000099B089A51464846FFF721FF13B0F0BC72
:102E7000BB46B246A946A046F0BDF0B5DE46574671
:102E80004E464546E0B597B00A900B910C929A4693
:102E9000209B9946219F22AA13789B46249B099345
:102EA000259C289B98464A463A4302D110329343C8
:102EB00098468022D20045461540434613420AD028
:102EC0004A463A4341D000252E0053460D934D46C5
:102ED000099B9A461BE02E0053460D934D46099BD5
:102EE0009A4614E03033DAB2731C99460EAB9A5509
:102EF000524623002800390000F0DEFFBC4226D8ED
:102F000019D04B461F2B1CD84E4605000F005246C9
:102F100023002800390000F0CFFFD3B2092BE1D9FC
:102F20004246920605D54122D218D2B20A3AD2B20E
:102F3000DAE76122F8E7AA45E3D94E460D9B9A46A7
:102F400008E04E460D9B9A4604E0002602E04E46FD
:102F50000D9B9A4643460693279B0593269B049315
:102F6000099B03935B46029301960EAB0093534675
:102F70000C9A0B990A98FFF79AFE17B0F0BCBB4663
:102F8000B246A946A046F0BDF0B5DE4657464E46CD
:102F90004546E0B591B0804689460C929A461A9C07
:102FA0001B9D22002B002000290001F000FA0028C0
:102FB00000D0ECE001225242D44B2000290001F065
:102FC000F1F9002800D0E2E001225242D04B20006B
:102FD000290001F0D1F9002800D0D8E00022002318
:102FE0002000290001F0C8F9002800D0E4E0069490
:102FF00007958023DB001E9A1A400D921E9A1A42F2
:1030000001D106231C930698079902000B00089231
:10301000099303000A00024300D1D9E0080D4005DE
:10302000400DBC4EB44660440A03120B1E00BA4B5E
:1030300013431F0001F0CEF9B84AB94B01F05DF916
:10304000B84AB94B01F03AF9089009910022B74B00
:103050003000390001F02DF9B54AB64B01F04DF9B9
:1030600002000B000898099901F028F901F0CAF94B
:10307000834601F0AFF906000F00AF4AAF4B01F0F5
:103080003CF90022AE4B01F019F901F0BBF90890B0
:10309000AC4AAD4B3000390001F02FF906000F00AB
:1030A000089801F097F9A94AA94B01F026F9020006
:1030B0000B003000390001F0FCF806000F000200A0
:1030C0000B0001F01AF90A900B91089BA14A944653
:1030D000634400210022089109921B0509930023F3
:1030E000089332003B003000390001F0E7F80E9001
:1030F0000F9132003B0000208021C90501F0D9F872
:1031000006000F000022944B0A980B9901F0DBF89F
:103110000022924B01F0D2F802000B000A980B99A2
:1031200001F0D1F800228E4B01F0C8F802000B002C
:103130000A980B9901F0C7F802000B003000390023
:1031400001F0BCF802000B000E980F9901F0BBF8DB
:103150000022714B01F0B2F8089A099B01F0CDF8FA
:1031600006000F0008960997069A079B01F01AF9C6
:1031700000282FD001235B429C46E3440022774B7A
:103180003000390001F09FF80890099122E01E9B61
:1031900004931D9B03931C9B02930094019553463B
:1031A0000C9A4946404600F0FFF811B0F0BCBB460F
:1031B000B246A946A046F0BD002100220691079222
:1031C000069480231B069C46AC446346079310E795
:1031D00000239B465B466333C62B20D804261E9BE8
:1031E0001B0528D5089A099B190011430FD05D4A89
:1031F0005D4B0698079901F0CDF800287AD000229F
:103200005A4B0698079901F0B7F8002872D01C9B1A
:103210005B4506DD5A469B1A013B1C9303E00526DD
:10322000DDE700231C938023DB001E9A1A431E92C5
:10323000002600239B461D9B9E4265D29F1B0223B6
:103240001E9A1A400A921E9A134202D0002E00D0F3
:1032500000275B46002B07D0089A099B0698079920
:1032600001F031F806900791002200232000290088
:1032700001F082F8002800D07CE03D4B1E9A1340FC
:10328000049303971C9B0293069B079C0093019455
:1032900053460C9A4946404600F086F8002E00D16D
:1032A00083E71E9B9B0671D54525441C53460200AF
:1032B00049462800C0475A46D317D2185A4005231A
:1032C0000593013E0496002303930A3302935B4661
:1032D000DB0F019300925346220049464046FFF718
:1032E0006EFD0A9B002B00D15FE7020047460C9E53
:1032F0001D9D53E01C9B002B9DD00D9B002B9AD055
:103300001C9B013B1C9396E7002798E7FFFFEF7F8C
:10331000FFFFEFFF01FCFFFF0000F03FFB799F5034
:103320001344D33FB3C8608B288AC63F0000F83FE0
:1033300061436F63A787D23F71A379094F930A4016
:103340000000E03F1655B5BBB16B0240EF39FAFE05
:10335000422EE63FFF03000000002C400000244006
:10336000000018402D431CEBE2361A3F80842E41AA
:10337000FFF7FFFF069C079D220029008020000622
:10338000844661440B000692079376E765258CE737
:10339000541C534649462020B8472200931BAB4299
:1033A000F6D3100001E7C046F0B5DE4657464E465C
:1033B0004546E0B595B00690079193469946209F03
:1033C0001E9A1F9B1000190000F0F1FF002831D158
:1033D00001225242BF4B1E981F9900F0CDFF0028DA
:1033E00037D101225242BC4B1E981F9900F0DAFFE0
:1033F00000283DD10022B94B1E981F9900F0D2FF42
:10340000002850D10022B64B1E981F9900F0B4FF3F
:10341000002848D1002200231E981F9900F0ACFF1D
:10342000002850D100239846229B5B0500D4B6E0CB
:10343000002458E0229B0393219B029303230193D2
:10344000A84B00934B465A4607990698FFF7D8FBBE
:103450000EE1229B0393219B029304230193A24B31
:1034600000934B465A4607990698FFF7C9FBFFE0C1
:103470000423229A1A4022990B4210D09B4B002A17
:103480000FD0042222990391219902910192009375
:103490004B465A4607990698FFF7B2FBE8E0944B73
:1034A000EDE70322EEE7229B0493219B039302970F
:1034B0001E9B1F9C009301944B465A460799069801
:1034C000FFF762FDD4E01E9A1F9B0020002100F050
:1034D000F0FE1E901F9101239846A5E70CAB302209
:1034E0001A55013F01341F2C01D8092FF6D81E9818
:1034F0001F9900F087FF050000F06CFF02000B0031
:103500001E981F9900F0D5FE7A4BFA009B181A6896
:103510005B680A920B9300F0F0FE0890099100F0AE
:1035200095FF060000F052FF02000B000898099971
:1035300000F0BFFE0890099100226F4B00F032FFAF
:1035400000282ED00136300000F040FF02000B00B2
:103550000A980B9900F016FF002801D001350026CB
:10356000002F2CD1280000F035FF02000B001E9820
:103570001F9900F09EFE06000F0000225E4B00F037
:10358000FBFE002846D100225B4B3000390000F0E2
:1035900009FF00283ED1EB073CD501353AE006276C
:1035A00046E70022544B0898099900F0E5FE0028F0
:1035B000D6D1002E01D0F307D2D50136D0E7AA46E6
:1035C0001F2C11D8013F0A21300000F037FC651C88
:1035D00030310CAB19550A21300000F02FFC092EB8
:1035E0000ED906002C00EBE755461F2C0CD87B1E8D
:1035F000002F09D00CAA302111551F000134F4E727
:103600002B0055461C00F0E71F2C03D80CAB2E22D4
:103610001A5501341F2C10D80A21280000F0E6FBAF
:10362000661C30310CAB19550A21280000F0DEFB76
:10363000051E01D03400EDE734000323229A134025
:10364000012B1CD01F2C06D84346002B32D00CABCC
:103650002D221A550134229B0393219B029301943E
:103660000CAB00934B465A4607990698FFF7C8FAE9
:1036700015B0F0BCBB46B246A946A046F0BD219BA2
:10368000002B13D04346002B02D10C3313420FD032
:10369000219B013B2193190003E00CAB30221A550A
:1036A00001348C42CED21F2CF7D9CBE72199F8E711
:1036B0002199F6E7229B5B0704D50CAB2B221A5508
:1036C0000134C8E7229B1B07C5D50CAB20221A5535
:1036D0000134C0E7FFFFEFFFFFFFEF7F65CDCD4176
:1036E00065CDCDC190990010949900108499001077
:1036F0008C990010389B00100000E03FF0B5DE46CA
:1037000057464E464546E0B593B0824688469346B6
:103710001193002900D106E300255646119B187825
:10372000002800D102E3252809D06C1C5B462A0042
:103730004146B047119B013311932500EEE7013359
:103740001193002720E001231F430132119201242D
:1037500018E002231F4301321192012412E00423D6
:103760001F430132119201240CE008231F43013250
:103770001192012406E010231F430132119201240B
:1037800000E00024002C09D0119A1378203BD9B214
:103790001029F6D88B00C449CB589F46119B1A7844
:1037A0001300303BDBB2092B10D92A2A13D00B941B
:1037B000119B1A782E2A1ED0119A1378683BD9B221
:1037C000122959D88B00B949CB589F4611A8FFF749
:1037D00005FA0B90ECE71C9B1A1D1C921B68002B32
:1037E00004DB0B93119B01331193E1E70222174392
:1037F0005B420B93F6E78022D20017435A1C1192CA
:103800005A781300303BDBB2092B0BD92A2AD3D1CB
:103810001C9B1A1D1C921C68002C08DB119B013399
:103820001193C9E711A8FFF7D9F90400C4E70024F0
:10383000F4E780235B003B43511C119151786C29C4
:1038400001D01F0018E0C0239B001F4302321192D9
:1038500012E080233B43511C11915178682901D01B
:103860001F0009E0C0231F430232119204E08023AD
:103870005B001F4301321192119B1878672816D8FC
:10388000252826D30300253BDAB2422A21D893000B
:10389000874AD3589F4680239B001F4301321192D1
:1038A000EAE780235B001F4301321192E4E77828A6
:1038B0000FD869280DD30200693AD2B20123934090
:1038C0007C4A13420FD11A0600D507E25B0500D5EA
:1038D00094E16C1C5B462A004146B047119B0133C2
:1038E000119325001AE778280AD062283AD06F2869
:1038F0003BD058283CD010239F43063B9C4601E018
:1039000010239C46582836D0692803D0642801D05B
:103910000C2297437A0501D50122974369282DD0BF
:1039200064282BD0BA0500D5A2E0FA0500D5C3E083
:103930007A0600D4D5E01C9A111D1C911168FF2253
:103940000A4005970B9B049303946346029300235C
:10395000019300925B462A0041463000FFF72FFAA0
:1039600005002AE002239C46CCE708239C46C9E7D1
:1039700010239C46C6E720221743C5E7BA0520D48A
:10398000FA0550D47A0666D51C9A111D1C9111684F
:10399000FF220A40D0171118414005970B9B049352
:1039A000039463460293D20F019200915B462A0072
:1039B00041463000FFF703FA0500119B01331193D4
:1039C000ACE61C9A073207218A43110008311C918A
:1039D000116853689946DB170C930D930C9A0D9B55
:1039E000100048400E904A4653400F930E980F998E
:1039F0000C9A0D9B801A99410E900F9108970B9B82
:103A00000793069463460493002305934B46DA0F0D
:103A10000292009001915B462A0041463000FFF778
:103A20002CFA0500C9E71C9A111D1C911268D017C9
:103A30001118414005970B9B04930394634602932E
:103A4000D20F019200915B462A0041463000FFF7F9
:103A5000B6F90500B1E73A0605D51C9A111D1C916F
:103A60000023D25E96E71C9A111D1C91126891E703
:103A70001C9A073207218A43110008311C910897CC
:103A80000B9B0793069463460493002305930293CC
:103A900053681268009201935B462A004146300049
:103AA000FFF7EBF9050088E79C990010E0990010FA
:103AB0002C9A0010419000001C9A111D1C91059732
:103AC0000B9B0493039463460293002301931368B2
:103AD00000935B462A0041463000FFF770F905006D
:103AE0006BE73A0606D51C9A111D1C911268120448
:103AF000120C26E71C9A111D1C91126821E746281A
:103B000019D01C9B0733072293431A0008321C92DA
:103B100004970B9A039202941A685B6800920193CF
:103B20005B462A0041463000FFF73EFC0500119B32
:103B300001331193F2E520231F43E2E7672801D008
:103B4000472802D180231B011F43452801D0472865
:103B500001D120231F431C9B0733072293431A00E4
:103B600008321C9204970B9A039202941A685B68BD
:103B7000009201935B462A0041463000FFF704FAA9
:103B80000500119B01331193C8E502231A003A4046
:103B900091463B421DD001241C9B1A1D1C926F1C98
:103BA00018785B462A004146B0474B46002B14D19B
:103BB000119B013311933D00B0E5571C5B46414614
:103BC0002020B04723003A005C1C9D42F5D8150028
:103BD000E2E701232A000B9DF6E73A00B1460B9E6F
:103BE00006E0571C5B4641462020C8472C003A009F
:103BF000651CA642F5D817004E46D9E71C9B1A1D36
:103C00001C921B689A46002C25D101225242534631
:103C100001E001330A001978002902D0511E002A60
:103C2000F7D152469B1A8022D200390011408946B2
:103C3000174202D0A34200D92300022211003940CA
:103C400010913A4209D02A00250057469A4633007F
:103C50004E46994621E02200D9E72A004546A04673
:103C600006E0541C5B4629002020B0473B002200A0
:103C70005F1C0B999942F4D84446A8463B002500A6
:103C800057469A4633004E46994606E01D000137D6
:103C9000541C5B464146C84722003878002804D0AF
:103CA000002EF4D06B1E002DF0D1150053464E4669
:103CB000109A002A03D1119B013311932EE50B9F1B
:103CC0002A0006E0551C5B4641462020B0472300F1
:103CD0002A005C1C9F42F5D81500ECE721233B43EA
:103CE0001C9A111D1C9112680593082304930394D8
:103CF000083302930023019300925B462A00414659
:103D00003000FFF75CF80500119B0133119305E5C6
:103D10006C1C5B462A0041462520B047119B0133AD
:103D200011932500FAE40B4B9A46F5E4B2465D4543
:103D30000DD35B465A1E5B4641460020D047280003
:103D400013B0F0BCBB46B246A946A046F0BD2A005F
:103D5000F1E7C046CD2B001000B585B0029003916D
:103D600001210448009313004A4202A9FFF7C6FC50
:103D700005B000BDCF2B001001480421014B1847AE
:103D8000F0050020B53D0010014B9B68184700006E
:103D9000F005002010B5010018231B88142210889C
:103DA000984710BD10B5010018231B8816221088F3
:103DB000984710BDF0B5C64600B507000E000025B7
:103DC0000123984600E00135B5420AD2AC003C1907
:103DD0002068FFF7DFFF20600028F4D10023984619
:103DE000F1E7404680BCB846F0BD0000124A936F30
:103DF0009B0815D29066D166002905D0FFE7FFE742
:103E0000FFE7516F106F704704B580210906C21794
:103E10005140002800D0C84304F04AFD002104BDF1
:103E2000F0B5146E556E576F166FFFF7E3FF14660B
:103E3000556657671667F0BD000000D0114A936FB2
:103E40009B0813D210665166002905D0FFE7FFE7F3
:103E5000FFE7516F106F704704B5002801D00020B4
:103E6000C04304F025FD002104BDC046F0B5146E2A
:103E7000556E576F166FFFF7E5FF14665566576767
:103E80001667F0BD000000D094464A4A926F92082F
:103E9000624601D228E0C046F0B5464E346E756EDB
:103EA000776F366F00F020F89446424A14665566E4
:103EB000576716676246F0BD94463E4A926F920875
:103EC000624601D254E0C046F0B53A4E346E756E8B
:103ED000776F366F00F04CF89446364A1466556694
:103EE000576716676246F0BD002B24DB11D000290E
:103EF0003EDA00B5C943404200D1013100F038F844
:103F0000C943404200D10131DB43524200D1013369
:103F100000BD002AEBD1002801D1002905D00020E6
:103F2000C90FC90701D1C043410800B504F0B0FC76
:103F30000022002300BD00B500290ADBDB4352420A
:103F400000D1013300F014F8C943404200D10131DF
:103F500000BDC943404200D10131DB43524200D190
:103F6000013300F005F8DB43524200D1013300BDBC
:103F7000002923D1002B18D1002A0CD0BC460D4FAC
:103F800038667A6600210023FFE7FFE7FFE77A6FD4
:103F9000386F67467047002801D00748010000B518
:103FA00004F076FC0022002300BD02000B0000207C
:103FB00000217047000000D0FFFFFFFF002B00D062
:103FC000BFE0130C28D1002AE7D080B4114F396626
:103FD0007A66FFE7FFE730B4040C7B6F396F1B0490
:103FE00023433B667A66FFE7FFE7FFE7C04684B2FC
:103FF0007B6F3D6F1B0423433B667A66FFE7FFE759
:10400000C04600232C042D0C7A6F386F00196941CB
:10401000B0BC7047000000D0F0B594460025140EE7
:1040200001D112020835140F01D112010435940F89
:1040300001D192000235D40F01D152000135D40BC9
:104040000134254F7C66254C3C660E0C93B2FFE78D
:10405000FFE7FFE73C6F6643360C7703BE467343CA
:10406000DF0B5B04C01AB941130C7343DB18C91A88
:10407000CE086643360CB64493B273431F0F1B0140
:10408000C01AB941130C73431F0B1B05C01AB94169
:10409000860D8F023E436643360C092D24DB520AFF
:1040A0007243801A7703460A6643360C16235B1B5D
:1040B000DE40DF40BF1964466643821B704604350C
:1040C00006330100D940A840C01900D30131A242F3
:1040D00006D20023F0BD0000000000D0FFFFFFFF6C
:1040E000121B0130F3D3F1E709277F1BFE40644622
:1040F000A2B27243801A00D20139220C7243130C0F
:104100001204821A99410B007046043513370100DE
:10411000F940A840801900D30131002B02D1A242FE
:104120000AD2F0BD013000D30131121BFAD2013B9B
:10413000F8D1A24200D2F0BD013000D30131121BF0
:10414000F7E7F0B51C0C00D080E00CB400251C0A89
:1041500004D11B02160E3343120208351C0B04D186
:104160001B01160F3343120104359C0B04D19B0035
:10417000960F334392000235DC0B02D192185B415B
:1041800001351C00971864410134464F7C66464C4B
:104190003C660E0CFFE7FFE7FFE7C0463C6F664357
:1041A000360C7703BE4697B27743C01B00D2013965
:1041B000C01B00D201399FB27743C91BC91B170C22
:1041C00077437E04FF0B801BB941CE086643360C53
:1041D0000C2D33DBB644120B1F053A431B0B97B271
:1041E0007743C01B00D201399FB27743C91B170C1C
:1041F00077433E043F0C801BB941860D8F023E433E
:10420000664329277F1BFE400C3D7746AF40BF1910
:1042100030BCA2B2ABB272437343801A9941220CF4
:104220007243130C1204801A994102000B000137EB
:10423000001BA941F9D2781E0021F0BD0C277F1B7D
:10424000FE4077467F0BAF40FF19E0E700245D1C7E
:1042500007D0144F7D663966FFE7FFE7FFE7FFE70A
:104260003C6F95B29EB265436643401BB141150C4D
:104270001E0C6543664336042F0C3E432D04401B41
:10428000B141994204D202000B0020000021F0BD90
:1042900001D19042F7D3801A994101349942F2D367
:1042A000F6E70000000000D0FFFFFFFF484041405C
:1042B000484018B4134B5B68019308BD18B4114B08
:1042C0001B68019308BD94460F4A926F920805D26D
:1042D000624618B40B4BDB68019308BD0A4AF0B57F
:1042E000146E556E576F166F6246FFF7F2FF064A5F
:1042F0001466556657671667F0BD18B4014B9B6886
:10430000019308BDD0F10020000000D0FFB550405F
:104310004240504059404B40594000E0FFB5154FD6
:104320004C00640D03D0BC4204D10C0314D800200F
:10433000090D09055C00640D03D0BC4204D11C03C7
:104340000AD800221B0D1B0501264B4009D44B4007
:1043500003D58B4200D18242FFBD9942FCD19042ED
:10436000FFBD0B43DB1803431343F5D0C943491882
:10437000FFBD0000FF07000000B5FFF7CFFF804141
:1043800000BDC04600B5FFF7C9FF01D9002000BD40
:10439000012000BD00B5FFF7B9FF01D9002000BD25
:1043A000012000BD00B5FFF7B1FF804100BD012035
:1043B00040054A00121804D85A00121801D80020EB
:1043C000704701207047002070470000002100283E
:1043D00005D17047C1174840401AFAD0C90713B534
:1043E000064B1B6898470CBC441CA2401005120BDE
:1043F0000349091B09051943114310BDD0F20020E0
:104400001F04000010B54C00620D8023D218DB00A1
:10441000D21A5B057E2A10DD9E3A13DACC17090307
:10442000490819435242D140640001341532202A10
:1044300005DAD0400843604310BD002010BD084697
:10444000604310BDC80FC018013810BD18B4024B2E
:104450005B6A019308BD0000D0F1002010B501484F
:10446000FEF796FB889B001070B513231C78012C77
:1044700012D0012C12DC214B214A93642148FFF712
:1044800089FC214B186070BD20491D4A980081505D
:1044900001331F2BF8D9ECE70023FAE71C48FFF79C
:1044A00081FC05001B48FFF77DFC023803789B0068
:1044B0007F2B09DD12488022290000F045F9022CEB
:1044C00008D0022CDADCD6E7134B144A1448322108
:1044D000FEF7C6FA134B1A88B5231B029A4209D17C
:1044E000114B1A88114B9A4204D1114B1A88114B67
:1044F0009A42E6D00020FEF74BFBC046394500103B
:10450000D0F100204C330000D0F200205D440010B8
:104510005344000053460000A09B00104C9C001028
:10452000F49B001054380000D838000049460000C1
:104530009C3800005946000007B56046002800D1AD
:1045400000BE01880A0A0230DF2AFAD1C9B2820805
:1045500004D3028840880004104300E00068024A47
:104560005050039007BD0000D0F100205143434359
:10457000C9188C46110C83B24B4310B4040C614330
:1045800092B280B2504362431C041B0C001910BC51
:1045900059411304120CC018514161447047000086
:1045A0004840414048400E4B5B6818470C4B1B6825
:1045B00018470C4A936F9B0802D2094BDB681847D7
:1045C000F0B5146E556E576F166FFFF7F6FF054A7C
:1045D0001466556657671667F0BD014B9B68184710
:1045E000D4F20020000000D007B5484041404840C8
:1045F00001E0C04607B54200120E03D0FF2A03D1E6
:10460000420218D8C00DC0054A00120E03D0FF2A7E
:1046100003D14A020FD8C90DC9050122414005D472
:10462000414001D5814207BD884207BD0143491879
:1046300001D0C043001807BD00B5FFF7DBFF01D074
:10464000002000BD012000BDC10FC90700D54042B8
:10465000002817D0F44603B40B4B1B68984706BCE0
:1046600081409E384042803107D20B0607D0490076
:10467000490AC0051043084360470130F8E7490A7A
:104680008902F5E770470000D0F20020014B5B6A19
:1046900018470000D4F2002010B50148FEF778FA60
:1046A0005CA5001070B513231E781848FFF77AFB3D
:1046B0000500012E11D0012E09DDAB1E1B789B00D9
:1046C0007F2B1DDD12488022290000F03DF81148A3
:1046D000FFF760FB104B186070BD0D485422290095
:1046E00000F032F8002300E001331F2BE3D8084A22
:1046F0009C00A258002AF7D10849054AA150F3E7C7
:10470000074B084A08484221FEF7AAF95346000021
:10471000D4F200204C330000D0F200209946001063
:10472000609C0010EC9C0010949C00100148042137
:10473000014B184700060020B53D0010014B1B68D7
:104740001847000000060020014B5B681847000076
:104750000006002010B50300080011001B689847F0
:1047600010BD0000F8B507000D001600437D002BBA
:1047700002D0002400200CE00368110028009847B4
:104780002DE03B7D10E03B68154802219847601CF6
:104790000134B44214DA002CF3DD2B19013B1B78F1
:1047A0000D3B5A425341DBB22A5D0A2AF0D1002B5D
:1047B000EED1A042E7DA3B68211A28189847E2E7D1
:1047C000B04203DA3B68311A28189847002E06DDFC
:1047D000AD19013D2B780D3B5A4253413B75F8BD55
:1047E000649D001070B505000368002B16D00C4BBB
:1047F0001C6805E0290004C92000FFF7B3FF246905
:10480000002C09D02368002BF9D0064B1B68002B25
:10481000F0D0A342F3D1EDE700232B6070BDC0467A
:10482000C8120020CC12002070B505000C000B68E7
:10483000802B05D023685A1C2260E418257170BDB6
:104840000800FFF7CFFFF5E710B5002B02DB026091
:10485000436010BD024B034A03483F21FEF700F9B5
:10486000AC910010689D0010C891001010B582B086
:104870000400FDF7DBFB02000B006846FFF7E4FFD6
:10488000009A019B22606360200002B010BD00000E
:1048900070B582B0060014001D00FA2292000023B9
:1048A00006980021FFF762FE02000B0012196B410F
:1048B000002B09DB6846FFF7C7FF009A019B3260B7
:1048C0007360300002B070BD01225242004BF1E72C
:1048D000FFFFFF7F30B585B004000D0002A8FFF791
:1048E000C5FF029A039B00952000FFF7D1FF20002F
:1048F00005B030BD00B583B0FA2189006846FFF7E6
:10490000E9FF009A019B024803F0E2FF03B000BDFB
:104910006006002010B5024803F0B2FF10BDC0468B
:1049200060060020F0B5CE46474680B583B006004D
:104930000D0090461C00FFF7DDFF81466B1C05D083
:10494000002C08D0194F1A4B1C6807E0300003F008
:1049500057FF0500F4E7174FF5E72469002C17D03F
:104960002368002BF9D0144B1B68002B01D0A34205
:10497000F3D12A0031002000B8474346002BECD089
:104980006B46D91D0A230B7001222000B847E4E7CB
:104990004B46002B07D16B1E9D41E8B203B0C0BC53
:1049A000B946B046F0BDFFF7B5FFF4E75547001034
:1049B000C812002065470010CC120020094A01E00F
:1049C00010331A001368002B08D08342F8D1002955
:1049D00007D1036913600023036102E0002900D0BE
:1049E00010607047C812002010B5064B1C6801E02B
:1049F00098472469002C03D06368002BF8D1F8E7AE
:104A000010BDC046C812002070B5050003F0F8FEC6
:104A100004000023012201002800FFF783FFFFF7B5
:104A2000E3FF200070BD000070B5A2B004000E00CE
:104A3000FFF760FF0500002301930A4833002200BE
:104A400001A9FFF789F9040001A8FFF7CBFEFFF7E2
:104A5000CBFF002D02D1200022B070BDFFF75AFF1E
:104A6000F9E7C046294800100FB400B583B004A987
:104A700001C90191FFF7D8FF03B008BC04B0184783
:104A800010B500F0FFF8012010BD000010B582B095
:104A90000C00144BC3185A425341134A5B009B5EEF
:104AA0008B4204D06B46DA1D1470002115E06B4672
:104AB000DA1D0D23137000210029F3D183699B06B1
:104AC000FCD41378036001310132F5E783699B065A
:104AD000FCD413780360013101320029F6D002B012
:104AE00010BDC0460080FCBFF8F3002082B0002259
:104AF0006B46D91D06E08369DB06FCD403680B70A6
:104B000001320131002AF6D06B46D87902B07047E5
:104B100070B506000D00002405E0315D034B1868F8
:104B2000FFF7B4FF0134AC42F7DB70BDFCF30020AB
:104B3000F8B506000D00002705E07C1CF719FFF70B
:104B4000D5FF38702700AF4204DA0E4A1068826938
:104B5000D206F2D50C4A1268002A0CD0094A126813
:104B60005021916310003430526B1839114080226B
:104B7000520102431160002F01D03800F8BD033FFD
:104B8000FBE7C046FCF300205C09002010B5064B93
:104B90001B68002B06D0054A126800219163044A65
:104BA0001068984710BDC0465C090020FCF3002047
:104BB0006009002070B505000E001C4B1A681C4BE4
:104BC000D31859424B4114331C0000281ED0194BF6
:104BD0001B68002B04D0174B1D60174B1E6070BD67
:104BE00016492000FCF7FCF901212000FCF7E0F950
:104BF0000E4B1B6850229A63190034315B6B183AD4
:104C00001A4080235B010B431A60E4E7094B1B68E1
:104C1000002BE0D00023936300212000FCF7C8F9AB
:104C200006492000FCF70EFBD5E7C046FCF3002048
:104C30000080FCBF5C090020600900208D4B001043
:104C400070B50D001C000D4B1860002A0BDA002C0B
:104C50000EDA0A4B18682900FDF706FD0848012105
:104C6000FFF7ACFE70BD02211000FBF721FFEEE75D
:104C700002212000FBF71CFFEBE7C046FCF30020FD
:104C80001006002010B5064B1B78064B1B78E1215F
:104C90000123002249020448FFF7D2FF10BDC0469D
:104CA0007C2504107825041000400340014B186057
:104CB0007047C046F807002010B50A00024B0100FB
:104CC000180002F0DFFA10BD9C090020014B1868A3
:104CD0007047C046F807002000B583B0684603F06F
:104CE000E7F90448694603F0E9F9002800D00148D3
:104CF00003B000BD8006002010B5FFF7E7FF0400F9
:104D000002F018FF054B9C4200D010BD23685B6B7E
:104D1000200098470020FFF7C9FFF6E78006002033
:104D200010B5FFF7D3FF041E06D0200002F0E6FE08
:104D3000002808D0002010BDFFF7CEFF041E07D0CA
:104D4000FFF7B4FFF1E7FFF7D7FF02204042F2E799
:104D500002204042EFE7000010B5024800F00CF8D6
:104D600010BDC046C8F1002010B502490822FFF767
:104D7000EBFC10BDC8F1002070B588B0040004AD94
:104D8000002604960922002105A8FFF7D7FC00960B
:104D90000922002101A8FFF7D1FC4B232B700D2223
:104DA0006946280003F064FD002304E05A1D6946AB
:104DB0008A5CE2540133072BF8DD08B070BD10B5F2
:104DC000040010220021FFF7B9FC80235B0223605E
:104DD000F8235B0263608023DB02A360C0231B0314
:104DE000A360200010BD000070B504000D00FFF7A7
:104DF000E6FF6A1D636809490B40ED012B4312036E
:104E000013436360E268D200D208802189050A4317
:104E1000E260034A13406360200070BD7F00FEFF24
:104E2000FFFFFF9F002805D0D0231B06802292049D
:104E30005A617047D0231B06802292049A61F8E7DA
:104E400010B50C2906D80368054A1340C9020B4364
:104E5000036010BD034B044A0448C321FDF700FE64
:104E6000FF87FFFF00890010CCA1001020890010EF
:104E700000B583B001000023019310330193134B5D
:104E8000019301A8FFF7DCFF019B0C22190091435D
:104E90000A0008210A4301920D4A1A400A4301926E
:104EA0000C4A1A400A4301920B4A1A4011430191DD
:104EB00009210A430192094A1A400A43019208480B
:104EC00018400843019003B000BDC04610801F0089
:104ED00033F8FFFF33F8BFFF33F89FFF33F81FFFAE
:104EE00031F81FFF10B53F2906D80368054A134063
:104EF000C9030B43036010BD034B044A0448B521AA
:104F0000FDF7AEFDFF7FE0FF80890010B4A1001027
:104F10002089001010B5094BC45821791820FBF7DF
:104F2000C7FD21791D20FBF7C3FD012200211D20B3
:104F3000FBF7D6FD0020FFF775FF10BD4C08000001
:104F400010B504000520FDF7D3FC000C60430349B5
:104F5000FEF774FF0338FDD210BDC0469A3B000037
:104F600010B50120FFF75EFF6420FFF7E9FF10BDD9
:104F700070B50500194BC458002C17D00623E35612
:104F8000002B08DB0522A256531C10D106216156C6
:104F9000206802F03DFA0720205600280CDA08208D
:104FA0002056002811DA0D4B0022EA5070BD0C4942
:104FB000206802F08BFAE9E702F0C8FB07202056D0
:104FC00002F0A8FBFF23E371E9E702F0BFFB082032
:104FD000205602F09FFBFF232372E4E74C080000F9
:104FE0000CA20010F0B5DE4657464E464546E0B5E9
:104FF00089B0050006AA714B11CB11C270497148E6
:1050000002F034FA002800D1BAE001236E4AAA580F
:10501000002A00D0BCE06D4C6B4AAC50990006AA47
:1050200088582060FF222272E2710633237100212A
:1050300002F0FEF940B2A071002800DAAEE060494B
:10504000624C206802F026FA41B2617102A8FFF7B3
:10505000CBFE8021890202915D4802683023934390
:105060005C4A136003680120824698431060059BE8
:10507000594A1A40594802430592594A1A40104366
:10508000C022120302430592564A1A405648104362
:10509000564A02430592F822D2011340544A1A4359
:1050A00080239B0513430593039A524B1A40944661
:1050B0000392514B9B4605930498504B034080222A
:1050C0005202134304934E4B184002430A43049286
:1050D0002168383180239B010B43802149041960EA
:1050E000206806216156029B98464B005B18DB0046
:1050F000C318C826B14699444E4647463760CC2669
:10510000B0469844464667463760D026B4469C442D
:1051100066463260DC335A461A60534600931D22BD
:1051200002F04EFA21791820FBF7C2FC012200217F
:105130001820FBF7D5FC01211820FBF7EBFC2368B6
:10514000062161564A005218D2009B18D8332D4AC6
:105150001A60002002F0E8FAE071002002F0E4FAA0
:1051600040B220720723E356002B1DDB00281BDB17
:10517000002009B0F0BCBB46B246A946A046F0BD2F
:105180000F49214802F072F9002813D000233DE7AF
:105190001E4B1F4A1F486621FDF762FC2800FFF7DF
:1051A000E7FE06204042E4E72800FFF7E1FE062084
:1051B0004042DEE706204042DBE7C04620A2001066
:1051C0000CA20010000030504C0800001409002010
:1051D00078C0014078D00140E0FF0FFC18001000BB
:1051E000E07F00FC007C00E018001C0000030004CD
:1051F00018031C04FFFFFF9F18771C24FFFF0AFE03
:10520000FFFF00C001E00000000020503C9F0010A4
:10521000FCA100104C9F0010F0B5DE4657464E46EC
:105220004546E0B587B00F0015001E00002900D1EB
:1052300052E1C04BC458FFF76DFE002E00D195E13E
:10524000002F00D14EE1AB0700D058E1B846BF07B0
:1052500000D05AE1B30700D05DE1109B9B0700D05E
:105260005FE12268062161561368012738008840F3
:105270008343136021680623E3569C460523E356C7
:1052800003935A1D9246624650008218D2008A1833
:10529000CC321368A84A13401A00039BDB01134366
:1052A0005246120313436044C0000918CC310B600E
:1052B0002268062161564B005B18DB00D033D21800
:1052C00080235B011343802212061A601A600621B4
:1052D0006156802252042068130002F023F92268EC
:1052E0000623E35604333900994080239B011A4377
:1052F000116021680622A2560832380090400B4304
:10530000186021680623E356EA00013A04339B0043
:105310005A502368062161564A005218D2009B1841
:10532000D833864A1A6021680623E356109A521B26
:10533000D200013A04339B005A502368062161567B
:105340004A005218D2009B18D8337D4A1A6023684D
:10535000062020560522A2561F2111404200121895
:10536000D2009B18D83319600722A2563B00934005
:10537000A020C005734943509301A021C9058C4664
:105380006344DB68DB01F7D40821615601238B40BD
:1053900060466C4A83508B01A022D2059446634438
:1053A000DA6880235B0417001F401A42F3D10720FC
:1053B0002056FFF75DFD04908023DB030343049335
:1053C000226806216156604B9A4200D1AFE0082363
:1053D000C91804A8FFF786FD0723E35621680622B3
:1053E000A256043292008A18A9088A469B01A0217D
:1053F000C9058C466344414619605A6052469A601A
:10540000049ADA6008202056FFF732FD05908023C9
:10541000DB030343059322680621615604314A4B9E
:105420009A4200D00827C91905A8FFF75BFD059B24
:10543000202219001143059110218B43134305933A
:105440000823E35672192068062161560831890045
:1054500041181098870850463F1A9B01A020C005AC
:105460008446634419605A609F60059ADA60226836
:10547000062020561168012383400B431360072246
:10548000A2569101A023DB059C4661440B69DB0118
:10549000F7D40822A2569101A023DB059C46614463
:1054A0000B69DB01F7D42A0000213000FFF746F931
:1054B0002368062161564A005218D2009B18D8333F
:1054C000224A1A60FFF74CFD002007B0F0BCBB4633
:1054D000B246A946A046F0BD002B00D0A9E60520A3
:1054E0004042F2E7002D04D0109B9D4201D23700CC
:1054F000A9E6174B174A1848EB21FDF7B1FA174BED
:10550000144A1548F121FDF7ABFA154B114A124820
:10551000F221FDF7A5FA134B0E4A0F48F321FDF7D0
:105520009FFA114B0B4A0C48F421FDF799FA3B0006
:105530004EE7C0464C0800007F00FEFF20600000E0
:1055400040600000440400000000205003A0000060
:10555000AC9F0010E8A100104C9F0010D09F0010DD
:10556000E49F0010FC9F001014A00010002F9FD09B
:10557000BA46BF0700D0E3E0AB0700D0E7E02268FF
:105580000621615613680127380088408343136061
:1055900023689B46062020560526A657731C9C466A
:1055A00041000B18DB005B44CC331B6898466B4B07
:1055B00042461A401300F60133436646360333432E
:1055C0000918C9000A005A44CC3213602268062127
:1055D00061564B005B18DB00D033D21880235B018F
:1055E0001343802212061A601A6006216156802237
:1055F00052042068130001F095FF22680623E35649
:1056000004333900994080239B011A4311602168BB
:105610000622A2560832380090400B4318602168D9
:105620000623E356EA00013A04339B005A502368EC
:10563000062161564A005218D2009B18D833484AB6
:105640001A6022680623E35604339B000021995018
:105650002368062161564A005218D2009B18D8339D
:10566000404A1A602368062020560522A2561F21B0
:10567000114042001218D2009B18D833196007203D
:1056800020568740A022D205374BD7508301A02255
:10569000D20594466344DA6880235B0417001F40F8
:1056A0001A42F3D107202056FFF7E2FB0590802332
:1056B000DB03034305932268062161562B4B9A4274
:1056C00000D00827C91905A8FFF70CFC0723E356EB
:1056D00021680622A256043292008A18AD089B0166
:1056E000A021C9058C466344514619605A609D60EB
:1056F000059ADA600622A256183201231900914059
:105700000A0021688A602068062565570168AB4059
:105710000B43036023689B681A42FBD02168062074
:1057200020560B680122824093430B60062161568C
:105730002068002300930133182201F041FFB7E6EF
:105740000B4B0C4A8F210C484900FDF789F90B4B94
:10575000084A20210848FF31FDF782F97F00FEFF4B
:105760002060000040600000440400000000205061
:10577000E49F0010E8A100104C9F0010D09F001083
:1057800030B589B001291CD0002409078025ED051A
:105790002943D2020D4D2A400A43134302932300AA
:1057A0000833009302AB04220021FFF735FD0028E7
:1057B00005D1002C07D005239B0002AA985809B0F8
:1057C00030BD1024E1E70123F6E7C04600F8FF0FE3
:1057D00030B585B00D07C02424062C43D2020E4DEF
:1057E0002A402243089C224302920393012907D0B6
:1057F00000230093082202A9FFF70EFD05B030BD7B
:1058000006490824445008394250054A83508268AA
:10581000044BC250ECE7C04600F8FF0F58080000E8
:10582000540800005C08000010B51720FBF784FA4C
:10583000D024240680231B04636200220121172048
:10584000FBF74EF91820FBF777FA80235B046362BD
:10585000A3611920FBF770FA80239B0463626361E4
:1058600010BD70B5D024240680252D04A561142018
:10587000FCF74BFB6561FA20FCF747FB1820FBF7B0
:105880005BFA80235B04A36270BD000070B584B036
:1058900005000E0014000822002102A8FEF74EFFAA
:1058A000012E18D036078023DB053343E2020D4971
:1058B0000A401343042213435BBA02930823009364
:1058C00002AB00212800FFF7A7FC002801D10398B4
:1058D00040BA04B070BD044B044A84210448FF312F
:1058E000FDF7BEF800F8FF0F28A00010A0A10010DF
:1058F0004C9F001010B50423FFF742FF10BD10B5F8
:105900000223FFF73DFF10BD10B50123FFF738FF5D
:1059100010BD000010B584B00C07C021090621435A
:10592000D202084C22400A4304210A4352BA02928E
:105930005BBA039300230093082202A9FFF76CFCD3
:1059400004B010BD00F8FF0F10B582B0042400941D
:10595000FFF73EFF02B010BD10B582B002240094E4
:10596000FFF736FF02B010BD10B582B001240094DD
:10597000FFF72EFF02B010BDF0B5CE46474680B50A
:1059800083B00C0091461D00012943D00027EB1C79
:1059900003218B435E1EFF21C9008E4245D20600C3
:1059A00028360A998E4205D004D82A4A81180A9AC4
:1059B000914241D8002F46D000212407A0468024E0
:1059C000E405A446444662461443A4464A46D2022D
:1059D000214C2240644622432A4304318900411865
:1059E0000C1D4A60FF180437009723000422002191
:1059F000FFF712FC071E28D10A9B9E4204D02A0002
:105A000031001800FEF7A0FE380003B0C0BCB94654
:105A1000B046F0BD402B01D81027B8E70F4B104A15
:105A2000E8211048FF31FDF71BF80F4B0C4AF52118
:105A30000C484900FDF714F80C4B094AEC210948C1
:105A4000FF31FDF70DF80421B7E709483900FFF7EA
:105A50000BF8D9E72808000000F8FF0F44A0001059
:105A60008CA100104C9F001084A00010ACA000106E
:105A700010A10010F0B5D646474680B583B00500AA
:105A80000F0090469A46012933D05346DE1C03236B
:105A90009E43721EFF23DB009A4232D2022F37D080
:105AA000280028300A9B984247D00A9B984204D885
:105AB0002F4BEB180A9A934254D83F07C0231B067A
:105AC0003B434246D2022B490A40134352461343FA
:105AD0006B620A99FEF738FE29002431321D00233B
